{
  "contractName": "A",
  "abi": [
    {
      "constant": false,
      "inputs": [],
      "name": "profile",
      "outputs": [],
      "payable": false,
      "stateMutability": "nonpayable",
      "type": "function"
    }
  ],
  "bytecode": "0x60606040523415600e57600080fd5b60848061001c6000396000f300606060405260043610603f576000357c0100000000000000000000000000000000000000000000000000000000900463ffffffff168063ab60636c146044575b600080fd5b3415604e57600080fd5b60546056565b005b5600a165627a7a72305820ff64122c7280cbc53bbc65cf2922922ae591604d29e730cb92a4fe2abf0e73ae0029",
  "source": "pragma solidity 0.4.18;\n\nimport './Profilable.sol';\n\ncontract A is Profilable {\n    function profile()\n        public\n    {\n\n    }\n}\n",
  "sourcePath": "/Users/matt/Projects/crypto/profile-contracts/contracts/A.sol",
  "compiler": {
    "name": "solc",
    "version": "0.4.18+commit.9cf6e910.Emscripten.clang"
  },
  "schemaVersion": "1.0.1",
  "updatedAt": "2017-11-23T10:50:00.175Z"
}